:020000040800F2
:1000000000280020BD1B0008C1180008C718000800
:10001000CD180008D3180008D91800080000000007
:10002000000000000000000000000000DF180008D1
:10003000EB18000800000000F7180008031900087A
:10004000051C0008051C0008051C0008051C00080C
:10005000051C0008051C0008051C0008051C0008FC
:10006000051C0008051C0008051C0008051C0008EC
:10007000051C0008051C0008051C0008051C0008DC
:10008000051C0008051C0008051C0008051C0008CC
:10009000051C0008051C0008051C0008051C0008BC
:1000A000051C0008051C0008051C0008051C0008AC
:1000B00011190008051C000800000000051C0008BC
:1000C000051C00080000000000000000051C0008DE
:1000D0000000000025190008051C000800000000B1
:1000E000051C0008051C0008051C00080000000095
:1000F0000000000000000000000000000000000000
:0C01000000000000000000005FF808F1A3
:10010C0010B5054C237833B9044B13B10448AFF345
:10011C0000800123237010BDD400002000000000DB
:10012C001440000808B5034B1BB103490348AFF357
:10013C00008008BD00000000D8000020144000081A
:10014C0080B483B000AF7860064A7B6852F82330E5
:10015C00012B01D1012300E0002318460C37BD46CA
:10016C0080BC7047F000002080B582B000AF002347
:10017C007B6012E0574A7B6852F8232056497B6813
:10018C0041F82320554A7B6852F8232051497B685B
:10019C0041F823207B6801337B607B68022BE9DD0F
:1001AC0040214F4802F0C6F803461A464B4B1A60E2
:1001BC0080214B4802F0BEF803461A46474B5A6062
:1001CC004FF48071464802F0B5F803461A46434B8B
:1001DC009A6000233B6075E03E4A3B6852F823204E
:1001EC003E493B6851F823309A4268D13A4A3B6801
:1001FC0052F8232037493B6851F823309A425ED19C
:10020C00354A3B6852F8232036493B6851F8233075
:10021C009A4217D0304A3B6852F8232031493B6848
:10022C0041F823202F4A3B6852F82330002B21D170
:10023C002D4B4FF4FA721A602C4A3B68012142F89C
:10024C00231017E0284B1B68013B274A1360264BF1
:10025C001B68002B0ED1244B4FF4FA721A60214A02
:10026C003B6852F82330002B04D1204A3B68012113
:10027C0042F823101B4A3B6852F82330002B19D14B
:10028C001B4A3B6852F823305A1C19493B6841F809
:10029C002320174A3B6852F82330C72B0FDD134A33
:1002AC003B68012142F82310114A3B68BE2142F8F9
:1002BC00231004E00E4A3B68002142F823103B68EF
:1002CC0001333B603B68022B86DD00BF00BF083763
:1002DC00BD4680BD0C00002018000020000000204E
:1002EC00000801402400002030000020F000002015
:1002FC00FC00002080B58EB000AF786039607B6860
:10030C006A4A82FB03129210DB17D31A7B637A685A
:10031C00664B83FB02139910D317C91A0B469B002B
:10032C000B445B00D31A3B6307F11C0300221A60D9
:10033C005A609A60DA6007F10C0300221A605A6066
:10034C009A60DA600323FB6228E07B6B002B03F0DE
:10035C000103B8BF5B421A46FB6A9B0007F13801E8
:10036C000B4443F81C2C7B6BDA0F13445B107B6340
:10037C003B6B002B03F00103B8BF5B421A46FB6AD0
:10038C009B0007F138010B4443F82C2C3B6BDA0F24
:10039C0013445B103B63FB6A013BFB62FB6A002B63
:1003AC00D3DA3B68002B3BD1BB6ADBB21A46022185
:1003BC003F4801F0D6FF7B6ADBB21A4604213C4869
:1003CC0001F0CFFF3B6ADBB21A460821384801F036
:1003DC00C8FFFB69DBB21A461021354801F0C1FF9A
:1003EC00BB69DBB21A464FF40061314801F0B9FF2A
:1003FC007B69DBB21A464FF480512D4801F0B1FFF6
:10040C003B69DBB21A464FF40051294801F0A9FFB1
:10041C00FB68DBB21A464FF48041254801F0A1FF7E
:10042C003B68012B3DD1BB6ADBB21A464021214807
:10043C0001F097FF7B6ADBB21A4680211D4801F060
:10044C0090FF3B6ADBB21A464FF48071194801F0F9
:10045C0088FFFB69DBB21A464FF40071154801F0B6
:10046C0080FFBB69DBB21A464FF48061114801F082
:10047C0078FF7B69DBB21A464FF400610D4801F03E
:10048C0070FF3B69DBB21A464FF48051094801F00A
:10049C0068FFFB68DBB21A464FF40051054801F0C7
:1004AC0060FF00BF3837BD4680BD00BF676666661B
:1004BC0000080140000C014080B582B000AF8D4BAC
:1004CC009B68012B07D120218B4801F062FF64212E
:1004DC00022001F067FA894B1B68082B00F2EE81B1
:1004EC0001A252F823F000BF19050008C908000842
:1004FC00C9080008C9080008C908000867050008F1
:10050C003306000835070008FF0700087B4B05225F
:10051C001A604FF49671012001F044FA002100207A
:10052C0001F040FA01F082FA754B1B68754A1360B2
:10053C00754B1B68754A1360754B1B68754A1360C5
:10054C006F4B1B68744A13606F4B1B68734A1360C4
:10055C006F4B1B68724A1360B9E101F08BFA654B63
:10056C001B68002B1BD0674B1B68013B654A136053
:10057C00684B1B68013B674A1360624B1B68002188
:10058C001846FFF7B7FE634B1B6801211846FFF7AF
:10059C00B1FE01F0AFFA6421002001F003FA554BD3
:1005AC005B68002B0ED0554B06221A6001F03EFA08
:1005BC00564B1B68642202FB03F33B603968012035
:1005CC0001F0F0F90120FFF7BBFD0346002B16D01C
:1005DC004A4B09221A604FF47A71012001F0E2F9BA
:1005EC0001F024FA474B0A221A604A4B0A221A607D
:1005FC004C4B00225A600121002001F0D3F900205D
:10060C00FFF79EFD0346002B00F05A813B4B022264
:10061C001A6001F00BFA0121002001F0C3F9414BE3
:10062C0000221A604CE101F035FA324B1B68002BAA
:10063C001BD0344B1B68013B324A1360334B1B6895
:10064C00013B324A13602F4B1B6800211846FFF701
:10065C0051FE2E4B1B6801211846FFF74BFE01F093
:10066C0049FA6421002001F09DF9224B5B68002BB4
:10067C000ED0224B07221A6001F0D8F9254B1B68CB
:10068C00642202FB03F37B607968012001F08AF994
:10069C000120FFF755FD0346002B16D0174B0A22FD
:1006AC001A604FF47A71012001F07CF901F0BEF967
:1006BC00144B0A221A60154B0A221A60194B00229D
:1006CC005A600121002001F06DF90020FFF738FD80
:1006DC000346002B00F0F680084B02221A6001F052
:1006EC00A5F90121002001F05DF90E4B00221A60E2
:1006FC00E8E000BF1C0100200008014008010020B8
:10070C004C00002034000020500000203800002055
:10071C00540000203C000020400000204400002039
:10072C0048000020F000002001F0C4F96A4B1B685F
:10073C00002B1BD0694B1B68013B684A1360684B4C
:10074C001B68013B664A1360654B1B680021184609
:10075C00FFF7D0FD614B1B6801211846FFF7CAFD5E
:10076C0001F0C8F96421002001F01CF95A4B5B68B8
:10077C00002B0ED05B4B08221A6001F057F95A4B34
:10078C001B68642202FB03F33B603968012001F013
:10079C0009F90120FFF7D4FC0346002B16D0514B6E
:1007AC000B221A604D4B0A221A604D4B0A221A601A
:1007BC0001F03CF94FF47A71012001F0F3F84B4B46
:1007CC0000225A600121002001F0ECF80020FFF714
:1007DC00B7FC0346002B77D0424B02221A6001F083
:1007EC0025F90121002001F0DDF8404B00221A60B0
:1007FC006AE001F06FF9384B1B68002B1BD0374BAC
:10080C001B68013B354A1360374B1B68013B364A6A
:10081C001360354B1B6800211846FFF76BFD2F4BFF
:10082C001B6801211846FFF765FD01F063F964218F
:10083C00002001F0B7F8284B5B68002B0ED0294B39
:10084C0005221A6001F0F2F8254B1B68642202FBAA
:10085C0003F37B607968012001F0A4F80120FFF715
:10086C006FFC0346002B16D01E4B0C221A601B4B40
:10087C000A221A601C4B0A221A604FF47A7101206A
:10088C0001F090F801F0D2F8184B00225A600121C7
:10089C00002001F087F80020FFF752FC0346002BE4
:1008AC0014D0104B02221A6001F0C0F80121002074
:1008BC0001F078F80D4B00221A6007E000BF06E04B
:1008CC0000BF04E000BF02E000BF00E000BF00BFBB
:1008DC000837BD4680BD00BF1C010020340000203D
:1008EC003C0000200801002038000020F00000200F
:1008FC0080B500AFA84B1B68093B032B00F2C981E4
:10090C0001A252F823F000BF25090008FB090008DA
:10091C00CF0A0008C90B000801F0ACF89F4B5B68CC
:10092C00002B19D09C4B05221A6001F07FF89C4BD0
:10093C001B689C4A13609C4B1B689C4A13609C4B25
:10094C001B689C4A1360994B1B68642202FB03F3DF
:10095C001946012001F026F80120FFF7F1FB0346B0
:10096C00002B12D08C4B0A221A608E4B0A221A6072
:10097C00904B0A221A6001F059F84FF47A71012059
:10098C0001F010F88C4B00225A600020FFF7D8FBC6
:10099C000346002B0BD0804B02221A6001F046F864
:1009AC000121002000F0FEFF834B00221A607B4BDC
:1009BC001B68002B00F06F817A4B1B68013B794A56
:1009CC0013607A4B1B68013B784A1360754B1B68AC
:1009DC0000211846FFF78EFC744B1B68012118464A
:1009EC00FFF788FC6421002000F0DCFF53E101F0EC
:1009FC0051F86A4B5B68002B19D0674B05221A60C3
:100A0C0001F014F8664B1B68664A1360664B1B6852
:100A1C00664A1360664B1B68664A1360634B1B681F
:100A2C00642202FB03F31946012000F0BBFF5B4B71
:100A3C001B68002B19D05B4B1B68013B594A136098
:100A4C005C4B1B68013B5B4A1360564B1B680021D7
:100A5C001846FFF74FFC574B1B6801211846FFF750
:100A6C0049FC6421002000F09DFF0120FFF768FB8A
:100A7C000346002B11D0484B0B221A606421012035
:100A8C0000F090FF00F0D2FF464B0A221A60474B51
:100A9C000A221A60484B00225A600020FFF750FBD4
:100AAC000346002B00F0F9803B4B02221A6000F049
:100ABC00BDFF0121002000F075FF3F4B00221A60A2
:100ACC00EBE000F0F7FF354B1B68002B19D0354BD2
:100ADC001B68013B334A1360344B1B68013B334AA0
:100AEC001360324B1B6800211846FFF703FC2D4B9B
:100AFC001B6801211846FFF7FDFB6421002000F064
:100B0C0051FF264B5B68002B19D0234B05221A6032
:100B1C0000F08CFF224B1B68224A1360224B1B688F
:100B2C00224A1360224B1B68224A13601F4B1B681E
:100B3C00642202FB03F31946012000F033FF01206D
:100B4C00FFF7FEFA0346002B11D0134B0C221A6050
:100B5C00144B0A221A60174B0A221A6064210120D6
:100B6C0000F020FF00F062FF134B00225A600020BF
:100B7C00FFF7E6FA0346002B00F09180064B0222A9
:100B8C001A6000F053FF0121002000F00BFF0A4B0C
:100B9C0000221A6083E000BF080100201C01002025
:100BAC004000002034000020480000203C000020C1
:100BBC004400002038000020F000002000F08AFFE4
:100BCC00394B5B68002B19D0384B05221A6000F0AA
:100BDC002DFF374B1B68374A1360374B1B68374A5E
:100BEC001360374B1B68374A1360344B1B68642205
:100BFC0002FB03F31946012000F0D4FE2A4B1B68BC
:100C0C00002B1BD02B4B1B68013B2A4A13602D4B2E
:100C1C001B68013B2B4A13602A4B1B6800211846AA
:100C2C00FFF768FB234B1B6801211846FFF762FB9B
:100C3C0000F060FF6421002000F0B4FE0120FFF7FB
:100C4C007FFA0346002B11D0184B09221A6064213D
:100C5C00012000F0A7FE00F0E9FE164B0A221A60F4
:100C6C00164B0A221A60184B00225A600020FFF71C
:100C7C0067FA0346002B14D00C4B02221A6000F0CA
:100C8C00D5FE0121002000F08DFE0F4B00221A60D2
:100C9C0007E000BF06E000BF04E000BF02E000BFB9
:100CAC0000E000BF00BF80BD1C0100200801002037
:100CBC004000002034000020480000203C000020B0
:100CCC004400002038000020F000002080B500AF68
:100CDC009A4B1B68013B032B00F2F08101A252F8E6
:100CEC0023F000BF010D0008090D0008530E000889
:100CFC00AB0F0008914B00221A60E6E18F4B1B688A
:100D0C0001211846FFF7F6FA8D4B1B680021184697
:100D1C00FFF7F0FA8B4B1B68002B08D0874B1B6836
:100D2C00184600F011FF3221002000F03BFE00209D
:100D3C00FFF706FA0346002B07D0804B03221A60FC
:100D4C0000F074FE804B00221A600120FFF7F8F9C6
:100D5C000346002B14D07C4B00225A60784B1B6846
:100D6C000133774A1360764B1B68642B02D1744BAA
:100D7C0001221A60724B1B6800211846FFF7BAFA61
:100D8C000220FFF7DDF90346002B00F099816E4B32
:100D9C0000229A606A4B1B68022B35DD684B1B687E
:100DAC00612B31DC694B1A68654B1B689A4205DA7A
:100DBC00634B1A68654B1B68D31A01E0644B1B68C4
:100DCC00644A1360644B1A68624B1B681344632BB0
:100DDC0017DC5B4B1A685F4B1B68D31A5E4A1360B7
:100DEC00574B1B685D4A13605C4B1B685C4A136075
:100DFC00584B1B68564A1360574B1B68534A136079
:100E0C000EE000F079F90BE0564B1B68534A136067
:100E1C00554B1B684F4A1360544B1B684E4A13606A
:100E2C0000F004FE454B05221A604B4B1B686422F4
:100E3C0002FB03F31946012000F0B4FD0121002050
:100E4C0000F0B0FD3CE13D4B1B6801211846FFF75B
:100E5C0051FA474B1B6800211846FFF74BFA394BE8
:100E6C001B68002B08D0354B1B68184600F06CFE35
:100E7C003221002000F096FD0020FFF761F90346B7
:100E8C00002B07D02D4B04221A6000F0CFFD2E4B07
:100E9C0000221A600120FFF753F90346002B14D0EF
:100EAC00294B00225A60324B1B680133304A1360C5
:100EBC002F4B1B68642B02D12D4B01221A602C4B3B
:100ECC001B6800211846FFF715FA0220FFF738F9C6
:100EDC000346002B00F0F6801B4B00229A60244B3B
:100EEC001A681F4B1B689A4205DA1D4B1A68204B77
:100EFC001B68D31A01E0154B1B68174A1360164B7D
:100F0C001A681B4B1B681344632B33DC124B1A6897
:100F1C00174B1B681344114A1360154B1B680D4A81
:100F2C0013600E4B1B680E4A13600A4B1B68084A71
:100F3C001360094B1B68054A13601DE00801002073
:100F4C00580000201C010020F00000204800002068
:100F5C0044000020380000203C0000203400002019
:100F6C00400000204C0000205000002054000020C5
:100F7C005C00002000F0C0F800F058FD544B052236
:100F8C001A60544B1B68642202FB03F319460120C0
:100F9C0000F008FD0121002000F004FD92E04C4B14
:100FAC001B6801211846FFF7A5F94B4B1B68002164
:100FBC001846FFF79FF9494B1B68002B08D0444B90
:100FCC001B68184600F0C0FD3221002000F0EAFC3E
:100FDC000020FFF7B5F80346002B07D03C4B01224D
:100FEC001A6000F023FD3E4B00221A600120FFF72F
:100FFC00A7F80346002B14D0394B00225A60364B0D
:10100C001B680133344A1360334B1B68642B02D1C9
:10101C00314B01221A60304B1B6800211846FFF738
:10102C0069F90220FFF78CF80346002B4CD02C4BAF
:10103C0000229A60284B1A682A4B1B689A4205DAE0
:10104C00284B1A68244B1B68D31A01E0264B1B68EB
:10105C00264A1360204B1A68244B1B681344632BDD
:10106C0017DC1D4B1A68214B1B681344204A136074
:10107C00194B1B68174A13601D4B1B68194A1360E8
:10108C001A4B1B68184A1360124B1B68194A1360E1
:10109C0001E000F031F800F0C9FC0D4B05221A609C
:1010AC000C4B1B68642202FB03F31946012000F071
:1010BC0079FC0121002000F075FC05E000BF04E084
:1010CC0000BF02E000BF00E000BF00BF80BD00BF5A
:1010DC00080100203C000020600000201C010020C2
:1010EC00F0000020400000204400002038000020C8
:1010FC00340000204800002080B400AF0D4B1B686A
:10110C000D4A13600D4B1B680D4A13600D4B1B6889
:10111C000D4A1360084B1B680C4A1360084B1B6884
:10112C000B4A1360084B1B680A4A136000BFBD468C
:10113C0080BC70474C000020340000205000002080
:10114C0038000020540000203C000020400000200B
:10115C00440000204800002080B500AF00F04EFD98
:10116C0000F026F800F060F800F0D4F800F0A8F8D1
:10117C000B4801F085FD00F045F9012232210948A8
:10118C0000F07EFA01223221074800F079FA0122A0
:10119C003221064800F074FA00F0AAFAFCE700BF0E
:1011AC00BC010020FD080008D90C0008C50400088B
:1011BC0080B590B000AF07F1180328220021184623
:1011CC0002F056FE3B1D00221A605A609A60DA60EB
:1011DC001A610223BB610123BB621023FB62002353
:1011EC007B6307F11803184601F0ECF80346002B5B
:1011FC0001D000F001F90F237B600023BB600023BA
:10120C00FB6000233B6100237B613B1D00211846E2
:10121C0001F058FB0346002B01D000F0EDF800BFA5
:10122C004037BD4680BD000080B586B000AF07F1E9
:10123C00080300221A605A609A60DA603B4600226A
:10124C001A605A601D4B4FF080421A601B4B41F6DE
:10125C003F725A60194B00229A60184B0922DA60CF
:10126C00164B00221A61154B00229A61134801F0AB
:10127C00B7FC0346002B01D000F0BEF84FF48053AE
:10128C00BB6007F1080319460C4801F035FE034614
:10129C00002B01D000F0B0F800233B6000237B60F2
:1012AC003B461946054802F00DF80346002B01D0C9
:1012BC0000F0A2F800BF1837BD4680BDBC0100206D
:1012CC0080B500AF114B124A1A60104B4FF4E1324B
:1012DC005A600E4B00229A600C4B0022DA600B4BCA
:1012EC0000221A61094B0C225A61084B00229A61A8
:1012FC00064B0022DA61054802F04EF80346002B3B
:10130C0001D000F079F800BF80BD00BF740100204F
:10131C000038014080B586B000AF07F10803002209
:10132C001A605A609A60DA60294B9B69284A43F02C
:10133C0004039361264B9B6903F004037B607B6879
:10134C00234B9B69224A43F008039361204B9B6912
:10135C0003F008033B603B68002247F63E011D4842
:10136C0000F0FFFF002243F6FF711B4800F0F9FF6D
:10137C0047F63E03BB600123FB6000233B61022365
:10138C007B6107F108031946124800F059FE4FF42F
:10139C00E073BB600023FB6000233B6107F1080393
:1013AC0019460C4800F04CFE43F6FF73BB6001235A
:1013BC00FB6000233B6102237B6107F108031946A4
:1013CC00054800F03DFE00BF1837BD4680BD00BF8C
:1013DC000010024000080140000C014080B582B0B2
:1013EC0000AF786000F0F6FA00F02EF8FEF7BCFEC5
:1013FC0000BF0837BD4680BD80B400AF72B600BFD9
:10140C00FEE7000080B400AF0A4B00221A60094BC3
:10141C0000225A60084B00221A60084B00221A6006
:10142C00074B00221A70074B00221A7000BFBD46F2
:10143C0080BC7047040200200C0100201001002029
:10144C00140100201501002080B483B000AF154BAF
:10145C001B687B601CE07B689B68002B04D07B685E
:10146C009B685A1E7B689A607B689B68002B0CD12A
:10147C007B681B695A1C7B681A617B68DB68002BD4
:10148C0003D07B68DA687B689A607B685B697B60F9
:10149C007B68002BDFD100BF00BF0C37BD4680BC82
:1014AC00704700BF0402002080B584B000AF7860A4
:1014BC003D4B5B68002B01D1012370E03A4B1B685C
:1014CC00FB600023BB6066E0FB685B687A689A424D
:1014DC005CD1BB68002B11D1FB685B69002B0DD173
:1014EC00F86802F0BDFC304B00221A602E4B5B6892
:1014FC00013B2D4A53600023FB604CE0BB68002B82
:10150C0017D1FB685B699968FB689A68FB685B6933
:10151C000A449A60FB685B69234A1360F86802F01E
:10152C009FFC214B5B68013B1F4A53600023FB600F
:10153C0031E0FB685B69002B0DD1F86802F090FC80
:10154C00BB6800225A61184B5B68013B164A53601A
:10155C000023FB601FE0FB685B699968FB689A6875
:10156C00FB685B690A449A60FB685A69BB685A61FC
:10157C00FB6800225A61F86802F072FC0A4B5B6847
:10158C00013B094A53600023FB6004E0FB68BB602D
:10159C00FB685B69FB60FB68002B95D10023184648
:1015AC001037BD4680BD00BF0402002080B584B05A
:1015BC0000AF0346FB71FB791846FFF775FF034636
:1015CC00002B02D00223FB7301E00023FB73FB7B97
:1015DC0018461037BD4680BD80B485B000AF78602A
:1015EC00264B5B681F2B01DD012342E07B68002248
:1015FC001A61224B5B68002B03D1204A7B68136075
:10160C0031E01E4B1B68FB600023BB600BE07B686A
:10161C009A68FB689B68D21A7B689A60FB68BB600F
:10162C00FB685B69FB60FB68002B05D07B689A68E4
:10163C00FB689B689A42EAD27B68FA685A61BB687D
:10164C00002B03D0BB687A685A6102E00B4A7B68B6
:10165C001360FB68002B06D0FB689A687B689B685C
:10166C00D21AFB689A60054B5B680133034A5360DE
:10167C00002318461437BD4680BC70470402002076
:10168C0080B586B000AFF860B9607A60182002F0BF
:10169C00DFFB03467B617B69BA689A607B697A6879
:1016AC00DA600E4B1B6801330C4A13600B4B1B6842
:1016BC00DAB27B695A607B69FA681A607B6900222E
:1016CC005A617B6900221A617869FFF785FF7B6993
:1016DC005B68DBB218461837BD4680BD0C01002094
:1016EC0080B400AF30BF00BFBD4680BC7047000067
:1016FC0080B582B000AF21E0154B1B687B6018E011
:10170C007B681B69002B11D07B681B695A1E7B6898
:10171C001A617B681B6898477B68DB68002B05D1D6
:10172C007B685B68DBB21846FFF740FF7B685B6940
:10173C007B607B68002BE3D1FFF7D2FF044B5B6827
:10174C00002BD9D100F006F800BF0837BD4680BD8C
:10175C000402002080B400AF00BFBD4680BC7047BF
:10176C0080B485B000AF154B9B69144A43F001035C
:10177C009361124B9B6903F00103BB60BB680F4B79
:10178C00DB690E4A43F08053D3610C4BDB6903F0E9
:10179C0080537B607B680A4B5B68FB60FB6823F0C3
:1017AC00E063FB60FB6843F08063FB60044AFB680A
:1017BC00536000BF1437BD4680BC70470010024018
:1017CC000000014080B584B000AF78607B681B6876
:1017DC00B3F1804F13D10C4BDB690B4A43F001037F
:1017EC00D361094BDB6903F00103FB60FB6800224A
:1017FC0000211C2000F03BFB1C2000F054FB00BF20
:10180C001037BD4680BD00BF0010024080B588B0C7
:10181C0000AF786007F1100300221A605A609A60DA
:10182C00DA607B681B68204A934239D11F4B9B6955
:10183C001E4A43F4804393611C4B9B6903F4804321
:10184C00FB60FB68194B9B69184A43F004039361D6
:10185C00164B9B6903F00403BB60BB684FF4007329
:10186C003B6102237B610323FB6107F110031946E3
:10187C000F4800F0E5FB4FF480633B6100237B6174
:10188C000023BB6107F110031946094800F0D8FB8F
:10189C0000220021252000F0EAFA252000F003FBAD
:1018AC0000BF2037BD4680BD00380140001002400B
:1018BC000008014080B400AFFEE780B400AFFEE743
:1018CC0080B400AFFEE780B400AFFEE780B400AF99
:1018DC00FEE780B400AF00BFBD4680BC704780B44B
:1018EC0000AF00BFBD4680BC704780B400AF00BFE6
:1018FC00BD4680BC704780B500AF00F0C5F900BF95
:10190C0080BD000080B500AF024801F005FA00BFB1
:10191C0080BD00BFBC01002080B500AF024801F0C3
:10192C008BFD00BF80BD00BF7401002080B586B068
:10193C0000AF7860144A154BD31A7B617B693B610D
:10194C00134B1B68002B02D1114B124A1A60104B1F
:10195C001A687B6813443A699A4207D202F04EFA2D
:10196C0003460C221A604FF0FF3309E0084B1B684A
:10197C00FB60074B1A687B681344054A1360FB68CD
:10198C0018461837BD4680BD002800200004000012
:10199C00180100205802002080B400AF00BFBD46E3
:1019AC0080BC704780B483B000AF78603960074A60
:1019BC007B68002142F8231005497B683A6841F89E
:1019CC00232000BF0C37BD4680BC70471C01002093
:1019DC004401002080B483B000AF00237B6017E08B
:1019EC00104A7B6852F82330002B09DD0D4A7B68C6
:1019FC0052F823305A1E0B497B6841F8232004E02F
:101A0C00094A7B68012142F823107B6801337B6013
:101A1C007B68092BE4DD00BF00BF0C37BD4680BCE2
:101A2C00704700BF440100201C01002080B500AFAE
:101A3C00002201210E4800F094FC002202210C48E7
:101A4C0000F08FFC00220421094800F08AFC0022DF
:101A5C000821074800F085FC00221021044800F002
:101A6C0080FC00222021024800F07BFC00BF80BDDE
:101A7C00000C014080B500AF01220121044800F0A8
:101A8C0070FC01222021024800F06BFC00BF80BDDD
:101A9C00000C014080B500AF01220121044800F088
:101AAC0060FC01220821024800F05BFC00BF80BDF5
:101ABC00000C014080B500AF01220221044800F067
:101ACC0050FC01221021024800F04BFC00BF80BDED
:101ADC00000C014080B500AF01220221044800F047
:101AEC0040FC01220421024800F03BFC00BF80BDF9
:101AFC00000C014080B400AF0D4B1B68002B03DCC5
:101B0C000C4B1B680A4A13600B4B1B68002B03DC45
:101B1C000A4B1B68084A1360094B1B68002B03DC3B
:101B2C00084B1B68064A136000BFBD4680BC70475B
:101B3C0034000020400000203C0000204800002021
:101B4C00380000204400002080B582B000AF7860DF
:101B5C007B68042B1BD07B68042B21DC7B68022B5D
:101B6C0003D07B68032B09D01AE001210F4800F049
:101B7C0010FC02210D4800F00CFC12E004210B4873
:101B8C0000F007FC0821094800F003FC09E01021D3
:101B9C00064800F0FEFB2021044800F0FAFB00E0B0
:101BAC0000BF00BF0837BD4680BD00BF000C014020
:101BBC00FFF7F2FE0B480C490C4A002302E0D45804
:101BCC00C4500433C4188C42F9D3094A094C00237D
:101BDC0001E013600432A242FBD302F015F9FFF7C7
:101BEC00BBFA704700000020D400002060400008C1
:101BFC00D400002054020020FEE7000080B500AFA6
:101C0C00084B1B68074A43F010031360032000F0D5
:101C1C0023F90F2000F008F8FFF7A2FD0023184667
:101C2C0080BD00BF0020024080B582B000AF78605C
:101C3C00124B1A68124B1B7819464FF47A73B3FB8C
:101C4C00F1F3B2FBF3F3184600F03BF90346002B1B
:101C5C0001D001230EE07B680F2B0AD80022796893
:101C6C004FF0FF3000F003F9064A7B681360002345
:101C7C0000E0012318460837BD4680BD64000020F3
:101C8C006C0000206800002080B400AF054B1B786E
:101C9C001A46054B1B681344034A136000BFBD462C
:101CAC0080BC70476C0000204002002080B400AF64
:101CBC00024B1B681846BD4680BC70474002002092
:101CCC0080B485B000AF78607B6803F00703FB60DD
:101CDC000C4BDB68BB60BA684FF6FF031340BB606C
:101CEC00FB681A02BB68134343F0BF6343F4003331
:101CFC00BB60044ABB68D36000BF1437BD4680BCD0
:101D0C00704700BF00ED00E080B400AF044BDB680F
:101D1C001B0A03F007031846BD4680BC704700BF82
:101D2C0000ED00E080B483B000AF0346FB7197F97F
:101D3C000730002B0BDBFB7903F01F02064997F9E8
:101D4C0007305B09012000FA02F241F8232000BFA2
:101D5C000C37BD4680BC704700E100E080B483B016
:101D6C0000AF03463960FB7197F90730002B0ADB93
:101D7C003B68DAB20C4997F907301201D2B20B4426
:101D8C0083F800230AE03B68DAB20849FB7903F0D8
:101D9C000F03043B1201D2B20B441A7600BF0C376E
:101DAC00BD4680BC704700BF00E100E000ED00E0E4
:101DBC0080B489B000AFF860B9607A60FB6803F05A
:101DCC000703FB61FB69C3F10703042B28BF042342
:101DDC00BB61FB690433062B02D9FB69033B00E0B2
:101DEC0000237B614FF0FF32BB6902FA03F3DA4345
:101DFC00BB681A407B699A404FF0FF317B6901FA4E
:101E0C0003F3D9437B680B40134318462437BD4674
:101E1C0080BC704780B582B000AF78607B68013BB6
:101E2C00B3F1807F01D301230FE00A4A7B68013BA9
:101E3C0053600F214FF0FF30FFF790FF054B00224E
:101E4C009A60044B07221A60002318460837BD46D7
:101E5C0080BD00BF10E000E080B582B000AF7860BC
:101E6C007868FFF72DFF00BF0837BD4680BD80B5F1
:101E7C0086B000AF0346B9607A60FB7300237B61C8
:101E8C00FFF742FF78617A68B9687869FFF790FFCD
:101E9C00024697F90F3011461846FFF75FFF00BF57
:101EAC001837BD4680BD80B582B000AF0346FB71CC
:101EBC0097F907301846FFF735FF00BF0837BD46C6
:101ECC0080BD80B582B000AF78607868FFF7A2FF64
:101EDC00034618460837BD4680BD80B485B000AFB8
:101EEC0078600023FB737B6893F82130DBB2022B04
:101EFC0008D07B6804229A637B68002283F8202038
:101F0C00012320E07B681B681A687B681B6822F041
:101F1C000E021A607B681B681A687B681B6822F0CB
:101F2C0001021A607B681A6C7B68DB6B012101FA79
:101F3C0002F25A607B68012283F821207B68002220
:101F4C0083F82020FB7B18461437BD4680BC7047B5
:101F5C0080B584B000AF78600023FB737B6893F886
:101F6C002130DBB2022B05D07B6804229A6301235B
:101F7C00FB7351E07B681B681A687B681B6822F056
:101F8C000E021A607B681B681A687B681B6822F05B
:101F9C0001021A607B681B68224A934229D07B6835
:101FAC001B68214A934222D07B681B681F4A9342CC
:101FBC001AD07B681B681E4A934212D07B681B6840
:101FCC001C4A93420AD07B681B681B4A934202D17D
:101FDC004FF480130EE04FF080730BE04FF480331E
:101FEC0008E04FF4805305E04FF4807302E01023B7
:101FFC0000E00123114A53607B68012283F8212001
:10200C007B68002283F820207B685B6B002B03D05D
:10201C007B685B6B78689847FB7B18461037BD462E
:10202C0080BD00BF080002401C000240300002408E
:10203C0044000240580002406C0002400000024084
:10204C0080B48BB000AF7860396000237B620023D2
:10205C003B6248E101227B6A02FA03F3FB613B68B5
:10206C001B68FA691340BB61BA69FB699A4240F07C
:10207C0037813B685B68A34A93425ED0A14A934286
:10208C0075D8A14A934258D09F4A93426FD89F4A21
:10209C00934252D09D4A934269D89D4A93424CD068
:1020AC009B4A934263D89B4A934246D0994A9342A7
:1020BC005DD8122B2AD8122B59D801A252F823F032
:1020CC004721000821210008332100087521000850
:1020DC007B2100087B2100087B2100087B21000864
:1020EC007B2100087B2100087B2100087B21000854
:1020FC007B2100087B2100087B2100087B21000844
:10210C007B210008292100083D210008824A9342C6
:10211C0013D02CE03B68DB683B6229E03B68DB6852
:10212C0004333B6224E03B68DB6808333B621FE00E
:10213C003B68DB680C333B621AE03B689B68002B06
:10214C0002D104233B6213E03B689B68012B05D151
:10215C0008233B627B68FA691A6109E008233B6239
:10216C007B68FA695A6103E000233B6200E000BF20
:10217C00BB69FF2B01D87B6801E07B6804337B6172
:10218C00BB69FF2B02D87B6A9B0002E07B6A083B91
:10219C009B003B617B691A680F213B6901FA03F3D1
:1021AC00DB431A40396A3B6901FA03F31A437B6932
:1021BC001A603B685B6803F08053002B00F0908042
:1021CC00564B9B69554A43F001039361534B9B69F2
:1021DC0003F00103BB60BB68514A7B6A9B08023366
:1021EC0052F82330FB607B6A03F003039B000F2241
:1021FC0002FA03F3DB43FA681340FB607B68494A3D
:10220C0093420DD07B68484A934207D07B68474A7B
:10221C00934201D1022304E0032302E0012300E0F6
:10222C0000237A6A02F0030292009340FA68134387
:10223C00FB603B497B6A9B080233FA6841F8232018
:10224C003B685B6803F48013002B06D0384B9A680C
:10225C003749BB6913438B6006E0354B9A68BB6901
:10226C00DB43334913408B603B685B6803F400131A
:10227C00002B06D02E4BDA682D49BB691343CB607B
:10228C0006E02B4BDA68BB69DB4329491340CB6072
:10229C003B685B6803F40033002B06D0244B5A6870
:1022AC002349BB6913434B6006E0214B5A68BB6959
:1022BC00DB431F4913404B603B685B6803F480337E
:1022CC00002B06D01A4B1A681949BB6913430B60D3
:1022DC0006E0174B1A68BB69DB43154913400B60CA
:1022EC007B6A01337B623B681A687B6A22FA03F3D0
:1022FC00002B7FF4AFAE00BF00BF2C37BD4680BCB7
:10230C00704700BF00003210000031100000221096
:10231C0000002110000012100000111000100240EB
:10232C000000014000080140000C01400010014079
:10233C000004014080B485B000AF78600B467B8010
:10234C007B689A687B881340002B02D00123FB73B7
:10235C0001E00023FB73FB7B18461437BD4680BCA1
:10236C00704780B483B000AF78600B467B80134617
:10237C007B707B78002B03D07A887B681A6103E032
:10238C007B881A047B681A6100BF0C37BD4680BC81
:10239C00704780B485B000AF78600B467B807B685B
:1023AC00DB68FB607A88FB6813401A04FB68D9432E
:1023BC007B880B401A437B681A6100BF1437BD46FB
:1023CC0080BC704780B586B000AF78607B68002B0E
:1023DC0001D101236CE27B681B6803F00103002B25
:1023EC0000F08780924B5B6803F00C03042B0CD03D
:1023FC008F4B5B6803F00C03082B12D18C4B5B6882
:10240C0003F48033B3F5803F0BD1894B1B6803F485
:10241C000033002B6CD07B685B68002B68D10123E8
:10242C0046E27B685B68B3F5803F06D1804B1B6846
:10243C007F4A43F4803313602EE07B685B68002B8B
:10244C000CD17B4B1B687A4A23F480331360784B96
:10245C001B68774A23F4802313601DE07B685B685C
:10246C00B3F5A02F0CD1724B1B68714A43F4802337
:10247C0013606F4B1B686E4A43F4803313600BE0A0
:10248C006B4B1B686A4A23F480331360684B1B68E0
:10249C00674A23F4802313607B685B68002B13D09E
:1024AC00FFF704FC386108E0FFF700FC02463B69CB
:1024BC00D31A642B01D90323FAE15D4B1B6803F497
:1024CC000033002BF0D014E0FFF7F0FB386108E08C
:1024DC00FFF7ECFB02463B69D31A642B01D90323AB
:1024EC00E6E1534B1B6803F40033002BF0D100E002
:1024FC0000BF7B681B6803F00203002B63D04C4BBE
:10250C005B6803F00C03002B0BD0494B5B6803F0AA
:10251C000C03082B1CD1464B5B6803F48033002B57
:10252C0016D1434B1B6803F00203002B05D07B68CC
:10253C001B69012B01D00123BAE13D4B1B6823F031
:10254C00F8027B685B69DB00394913430B603AE0A6
:10255C007B681B69002B20D0364B01221A60FFF7D9
:10256C00A5FB386108E0FFF7A1FB02463B69D31AD3
:10257C00022B01D903239BE12D4B1B6803F00203B3
:10258C00002BF0D02A4B1B6823F0F8027B685B69A8
:10259C00DB00274913430B6015E0264B00221A6021
:1025AC00FFF784FB386108E0FFF780FB02463B69CC
:1025BC00D31A022B01D903237AE11D4B1B6803F0BC
:1025CC000203002BF0D17B681B6803F00803002B7F
:1025DC003AD07B689B69002B19D0174B01221A60EB
:1025EC00FFF764FB386108E0FFF760FB02463B69CC
:1025FC00D31A022B01D903235AE10D4B5B6A03F06A
:10260C000203002BF0D0012000F0CCFA1CE00A4BA6
:10261C0000221A60FFF74AFB38610FE0FFF746FB18
:10262C0002463B69D31A022B08D9032340E100BFB1
:10263C000010024000004242800442429E4B5B6A02
:10264C0003F00203002BE9D17B681B6803F0040341
:10265C00002B00F0A6800023FB75974BDB6903F081
:10266C008053002B0DD1944BDB69934A43F080537C
:10267C00D361914BDB6903F08053BB60BB680123D2
:10268C00FB758E4B1B6803F48073002B18D18B4B9E
:10269C001B688A4A43F480731360FFF707FB3861A9
:1026AC0008E0FFF703FB02463B69D31A642B01D900
:1026BC000323FDE0814B1B6803F48073002BF0D0E7
:1026CC007B68DB68012B06D17B4B1B6A7A4A43F093
:1026DC00010313622DE07B68DB68002B0CD1764B79
:1026EC001B6A754A23F001031362734B1B6A724A0F
:1026FC0023F0040313621CE07B68DB68052B0CD110
:10270C006D4B1B6A6C4A43F0040313626A4B1B6AE1
:10271C00694A43F0010313620BE0674B1B6A664A7C
:10272C0023F001031362644B1B6A634A23F0040316
:10273C0013627B68DB68002B15D0FFF7B7FA3861A2
:10274C000AE0FFF7B3FA02463B69D31A41F288322A
:10275C00934201D90323ABE0574B1B6A03F00203EE
:10276C00002BEED014E0FFF7A1FA38610AE0FFF776
:10277C009DFA02463B69D31A41F28832934201D941
:10278C00032395E04C4B1B6A03F00203002BEED1A4
:10279C00FB7D012B05D1484BDB69474A23F0805365
:1027AC00D3617B68DB69002B00F08180424B5B6856
:1027BC0003F00C03082B61D07B68DB69022B46D13C
:1027CC003F4B00221A60FFF771FA386108E0FFF7FF
:1027DC006DFA02463B69D31A022B01D9032367E039
:1027EC00354B1B6803F00073002BF0D17B681B6A20
:1027FC00B3F5803F08D1304B5B6823F400327B6823
:10280C009B682D4913434B602B4B5B6823F474126C
:10281C007B68196A7B685B6A0B43274913434B60DF
:10282C00274B01221A60FFF741FA386108E0FFF7E5
:10283C003DFA02463B69D31A022B01D9032337E038
:10284C001D4B1B6803F00073002BF0D02FE01C4BCA
:10285C0000221A60FFF72AFA386108E0FFF726FA1F
:10286C0002463B69D31A022B01D9032320E0124BF9
:10287C001B6803F00073002BF0D118E07B68DB6958
:10288C00012B01D1012313E00B4B5B68FB60FB6850
:10289C0003F480327B681B6A9A4206D1FB6803F40E
:1028AC0070127B685B6A9A4201D0012300E000231E
:1028BC0018461837BD4680BD00100240007000401D
:1028CC006000424280B584B000AF786039607B68AC
:1028DC00002B01D10123D0E06A4B1B6803F00703E6
:1028EC003A689A4210D9674B1B6823F00702654976
:1028FC003B6813430B60634B1B6803F007033A6898
:10290C009A4201D00123B8E07B681B6803F00203F4
:10291C00002B20D07B681B6803F00403002B05D030
:10292C00594B5B68584A43F4E06353607B681B68FF
:10293C0003F00803002B05D0534B5B68524A43F459
:10294C0060535360504B5B6823F0F0027B689B68CC
:10295C004D4913434B607B681B6803F00103002B4C
:10296C0040D07B685B68012B07D1474B1B6803F495
:10297C000033002B15D101237FE07B685B68022BB1
:10298C0007D1414B1B6803F00073002B09D10123C5
:10299C0073E03D4B1B6803F00203002B01D10123B4
:1029AC006BE0394B5B6823F003027B685B6836494C
:1029BC0013434B60FFF77AF9F8600AE0FFF776F9FA
:1029CC000246FB68D31A41F28832934201D90323A1
:1029DC0053E02D4B5B6803F00C027B685B689B003B
:1029EC009A42EBD1274B1B6803F007033A689A42D3
:1029FC0010D2244B1B6823F0070222493B68134377
:102A0C000B60204B1B6803F007033A689A4201D015
:102A1C00012332E07B681B6803F00403002B08D011
:102A2C00194B5B6823F4E0627B68DB68164913433F
:102A3C004B607B681B6803F00803002B09D0124B1A
:102A4C005B6823F460527B681B69DB000E491343FF
:102A5C004B6000F021F802460B4B5B681B0903F03E
:102A6C000F030A49CB5C22FA03F3094A1360094BA2
:102A7C001B681846FFF7D8F8002318461037BD46D8
:102A8C0080BD00BF00200240001002402C40000816
:102A9C00640000206800002080B487B000AF0023E1
:102AAC00FB600023BB6000237B6100237B60002361
:102ABC003B611E4B5B68FB60FB6803F00C03042B53
:102ACC0002D0082B03D027E0194B3B6127E0FB68B1
:102ADC009B0C03F00F03174AD35C7B60FB6803F479
:102AEC008033002B10D0114B5B685B0C03F001039F
:102AFC00114AD35CBB607B680D4A02FB03F2BB68D6
:102B0C00B2FBF3F37B6104E07B680C4A02FB03F33A
:102B1C007B617B693B6102E0054B3B6100BF3B691C
:102B2C0018461C37BD4680BC704700BF00100240E1
:102B3C0000127A00444000085440000800093D008F
:102B4C0080B400AF024B1B681846BD4680BC704772
:102B5C006400002080B500AFFFF7F2FF0246054B82
:102B6C005B681B0A03F007030349CB5C22FA03F3EF
:102B7C00184680BD001002403C40000880B500AFF4
:102B8C00FFF7DEFF0246054B5B68DB0A03F0070329
:102B9C000349CB5C22FA03F3184680BD00100240B7
:102BAC003C40000880B485B000AF78600A4B1B68CD
:102BBC000A4AA2FB03235B0A7A6802FB03F3FB605D
:102BCC0000BFFB685A1EFA60002BF9D100BF00BF92
:102BDC001437BD4680BC704764000020D34D621092
:102BEC0080B582B000AF78607B68002B01D10123E7
:102BFC0041E07B6893F83D30DBB2002B06D17B685B
:102C0C00002283F83C207868FEF7DCFD7B6802220A
:102C1C0083F83D207B681A687B680433194610469C
:102C2C0000F056FA7B68012283F846207B6801226B
:102C3C0083F83E207B68012283F83F207B680122C9
:102C4C0083F840207B68012283F841207B680122B5
:102C5C0083F842207B68012283F843207B680122A1
:102C6C0083F844207B68012283F845207B6801228D
:102C7C0083F83D20002318460837BD4680BD000070
:102C8C0080B485B000AF78607B6893F83D30DBB2E0
:102C9C00012B01D0012335E07B68022283F83D2013
:102CAC007B681B68DA687B681B6842F00102DA609B
:102CBC007B681B68164A934209D07B681B68B3F18A
:102CCC00804F04D07B681B68124A934211D17B68F9
:102CDC001B689B6803F00703FB60FB68062B10D096
:102CEC007B681B681A687B681B6842F001021A60DB
:102CFC0007E07B681B681A687B681B6842F001025E
:102D0C001A60002318461437BD4680BC704700BFBC
:102D1C00002C01400004004080B584B000AF786006
:102D2C007B681B68DB68FB607B681B681B69BB608E
:102D3C00BB6803F00203002B20D0FB6803F00203F6
:102D4C00002B1BD07B681B686FF002021A617B683A
:102D5C0001221A777B681B689B6903F00303002B25
:102D6C0003D0786800F098F905E0786800F08BF9EA
:102D7C00786800F09AF97B6800221A77BB6803F038
:102D8C000403002B20D0FB6803F00403002B1BD0A2
:102D9C007B681B686FF004021A617B6802221A7749
:102DAC007B681B689B6903F44073002B03D0786825
:102DBC0000F072F905E0786800F065F9786800F0C9
:102DCC0074F97B6800221A77BB6803F00803002BA8
:102DDC0020D0FB6803F00803002B1BD07B681B681A
:102DEC006FF008021A617B6804221A777B681B68F3
:102DFC00DB6903F00303002B03D0786800F04CF977
:102E0C0005E0786800F03FF9786800F04EF97B68CF
:102E1C0000221A77BB6803F01003002B20D0FB684C
:102E2C0003F01003002B1BD07B681B686FF01002A3
:102E3C001A617B6808221A777B681B68DB6903F4CC
:102E4C004073002B03D0786800F026F905E0786811
:102E5C0000F019F9786800F028F97B6800221A77DD
:102E6C00BB6803F00103002B0CD0FB6803F00103DB
:102E7C00002B07D07B681B686FF001021A61786821
:102E8C00FEF7ACFABB6803F08003002B0CD0FB6898
:102E9C0003F08003002B07D07B681B686FF0800267
:102EAC001A61786800F06FFABB6803F04003002BDE
:102EBC000CD0FB6803F04003002B07D07B681B6829
:102ECC006FF040021A61786800F0F8F8BB6803F004
:102EDC002003002B0CD0FB6803F02003002B07D041
:102EEC007B681B686FF020021A61786800F042FA68
:102EFC0000BF1037BD4680BD80B584B000AF786090
:102F0C0039600023FB737B6893F83C30012B01D1B3
:102F1C000223B4E07B68012283F83C207B68022208
:102F2C0083F83D207B681B689B68BB60BB6823F003
:102F3C007703BB60BB6823F47F43BB607B681B6873
:102F4C00BA689A603B681B68B3F5005F3ED0B3F576
:102F5C00005F00F28780B3F5805F00F08680B3F5E8
:102F6C00805F7FD8702B1AD0702B7BD8602B50D001
:102F7C00602B77D8502B3CD0502B73D8402B58D08B
:102F8C00402B6FD8302B64D0302B6BD8202B60D0DB
:102F9C00202B67D8002B5CD0102B5AD062E07B68BA
:102FAC0018683B6899683B685A683B68DB6800F0B6
:102FBC006AF97B681B689B68BB60BB6843F077034E
:102FCC00BB607B681B68BA689A604FE07B681868C6
:102FDC003B6899683B685A683B68DB6800F053F9BA
:102FEC007B681B689A687B681B6842F480429A6015
:102FFC003CE07B6818683B6859683B68DB681A469C
:10300C0000F0CAF87B681B685021184600F021F9C3
:10301C002CE07B6818683B6859683B68DB681A468B
:10302C0000F0E8F87B681B686021184600F011F985
:10303C001CE07B6818683B6859683B68DB681A467B
:10304C0000F0AAF87B681B684021184600F001F9D3
:10305C000CE07B681A683B681B681946104600F048
:10306C00F8F803E00123FB7300E000BF7B6801224A
:10307C0083F83D207B68002283F83C20FB7B1846BC
:10308C001037BD4680BD80B483B000AF786000BF00
:10309C000C37BD4680BC704780B483B000AF7860FD
:1030AC0000BF0C37BD4680BC704780B483B000AF06
:1030BC00786000BF0C37BD4680BC704780B483B0CD
:1030CC0000AF786000BF0C37BD4680BC7047000075
:1030DC0080B485B000AF786039607B681B68FB609A
:1030EC007B682B4A934207D07B68B3F1804F03D0A7
:1030FC007B68284A934208D1FB6823F07003FB607D
:10310C003B685B68FA681343FB607B68204A934218
:10311C0007D07B68B3F1804F03D07B681D4A934284
:10312C0008D1FB6823F44073FB603B68DB68FA68EA
:10313C001343FB60FB6823F080023B685B6913431D
:10314C00FB607B68FA681A603B689A687B68DA6295
:10315C003B681A687B689A627B680D4A934203D17C
:10316C003B681A697B681A637B6801225A617B6829
:10317C001B6903F00103002B05D07B681B6923F04E
:10318C0001027B681A6100BF1437BD4680BC7047D2
:10319C00002C01400004004080B487B000AFF86000
:1031AC00B9607A60FB681B6A7B61FB681B6A23F061
:1031BC000102FB681A62FB689B693B613B6923F067
:1031CC00F0033B617B681B013A6913433B617B69EC
:1031DC0023F00A037B617A69BB6813437B61FB684C
:1031EC003A699A61FB687A691A6200BF1C37BD465E
:1031FC0080BC704780B487B000AFF860B9607A606B
:10320C00FB681B6A7B61FB681B6A23F01002FB687E
:10321C001A62FB689B693B613B6923F470433B6119
:10322C007B681B033A6913433B617B6923F0A00362
:10323C007B61BB681B017A6913437B61FB683A694C
:10324C009A61FB687A691A6200BF1C37BD4680BC64
:10325C00704780B485B000AF786039607B689B683C
:10326C00FB60FB6823F07003FB603A68FB68134358
:10327C0043F00703FB607B68FA689A6000BF143761
:10328C00BD4680BC704780B487B000AFF860B960B1
:10329C007A603B60FB689B687B617B6923F47F43AE
:1032AC007B613B681A027B681A43BB6813437A69DB
:1032BC0013437B61FB687A699A6000BF1C37BD467B
:1032CC0080BC704780B485B000AF786039607B6893
:1032DC0093F83C30012B01D1022341E07B680122A1
:1032EC0083F83C207B68022283F83D207B681B68B6
:1032FC005B68FB607B681B689B68BB60FB6823F0AA
:10330C007003FB603B681B68FA681343FB607B68C7
:10331C001B68FA685A607B681B68144A934209D090
:10332C007B681B68B3F1804F04D07B681B68104A24
:10333C0093420CD1BB6823F08003BB603B685B6895
:10334C00BA681343BB607B681B68BA689A607B6879
:10335C00012283F83D207B68002283F83C20002367
:10336C0018461437BD4680BC704700BF002C014086
:10337C000004004080B483B000AF786000BF0C370D
:10338C00BD4680BC704780B483B000AF786000BF8E
:10339C000C37BD4680BC704780B582B000AF7860FA
:1033AC007B68002B01D1012342E07B6893F841300C
:1033BC00DBB2002B06D17B68002283F840207868B2
:1033CC00FEF724FA7B68242283F841207B681B6873
:1033DC00DA687B681B6822F40052DA60786800F0C7
:1033EC007FFC7B681B681A697B681B6822F490421F
:1033FC001A617B681B685A697B681B6822F02A0279
:10340C005A617B681B68DA687B681B6842F400525F
:10341C00DA607B6800225A647B68202283F84120A2
:10342C007B68202283F842207B6800225A630023A9
:10343C0018460837BD4680BD80B5BAB000AF78607D
:10344C007B681B681B68C7F8E4307B681B68DB680B
:10345C00C7F8E0307B681B685B69C7F8DC30002379
:10346C00C7F8D8300023C7F8D430D7F8E43003F0CD
:10347C000F03C7F8D830D7F8D830002B0FD1D7F8B6
:10348C00E43003F02003002B09D0D7F8E03003F030
:10349C002003002B03D0786800F063FB5BE2D7F8C5
:1034AC00D830002B00F0DE80D7F8DC3003F00103BD
:1034BC00002B06D1D7F8E03003F49073002B00F00A
:1034CC00D180D7F8E43003F00103002B0BD0D7F8F0
:1034DC00E03003F48073002B05D07B685B6C43F009
:1034EC0001027B685A64D7F8E43003F00403002B24
:1034FC000BD0D7F8DC3003F00103002B05D07B6830
:10350C005B6C43F002027B685A64D7F8E43003F03A
:10351C000203002B0BD0D7F8DC3003F00103002B97
:10352C0005D07B685B6C43F004027B685A64D7F867
:10353C00E43003F00803002B11D0D7F8E03003F08F
:10354C002003002B05D1D7F8DC3003F00103002B4E
:10355C0005D07B685B6C43F008027B685A647B681F
:10356C005B6C002B00F0F281D7F8E43003F0200301
:10357C00002B08D0D7F8E03003F02003002B02D04A
:10358C00786800F0EEFA7B681B685B6903F0400317
:10359C00002B14BF01230023DBB2C7F8D4307B68A7
:1035AC005B6C03F00803002B03D1D7F8D430002B4D
:1035BC004FD0786800F0F8F97B681B685B6903F002
:1035CC004003002B41D07B681B681433C7F89C3038
:1035DC00D7F89C3053E8003FC7F89830D7F89830AC
:1035EC0023F04003C7F8D0307B681B681433D7F83E
:1035FC00D020C7F8A820C7F8A430D7F8A410D7F863
:10360C00A82041E80023C7F8A030D7F8A030002B41
:10361C00D9D17B68DB6B002B13D07B68DB6B7E4ACC
:10362C005A637B68DB6B1846FEF792FC0346002B53
:10363C0016D07B68DB6B5B6B7A68D26B1046984755
:10364C000EE0786800F09CF90AE0786800F098F9D0
:10365C0006E0786800F094F97B6800225A6475E102
:10366C0000BF73E17B681B6B012B40F04F81D7F8D7
:10367C00E43003F01003002B00F04881D7F8E03061
:10368C0003F01003002B00F041810023BB607B682A
:10369C001B681B68BB607B681B685B68BB60BB6896
:1036AC007B681B685B6903F04003002B00F0B6805D
:1036BC007B68DB6B1B685B68A7F8BE30B7F8BE3065
:1036CC00002B00F045817B689B8DB7F8BE209A4299
:1036DC0080F03E817B68B7F8BE20DA857B68DB6BB7
:1036EC009B69202B00F088807B681B680C33C7F823
:1036FC008830D7F8883053E8003FC7F88430D7F8C3
:10370C00843023F48073C7F8B8307B681B680C33A3
:10371C00D7F8B820C7F89420C7F89030D7F8901095
:10372C00D7F8942041E80023C7F88C30D7F88C30B8
:10373C00002BD9D17B681B6814337B677B6F53E8F4
:10374C00003F3B673B6F23F00103C7F8B4307B6845
:10375C001B681433D7F8B420C7F88020FB67F96FC7
:10376C00D7F8802041E80023BB67BB6F002BE1D169
:10377C007B681B6814333B663B6E53E8003FFB656C
:10378C00FB6D23F04003C7F8B0307B681B68143323
:10379C00D7F8B020FA66BB66B96EFA6E41E8002322
:1037AC007B667B6E002BE3D17B68202283F8422062
:1037BC007B6800221A637B681B680C33FB64FB6C10
:1037CC0053E8003FBB64BB6C23F01003C7F8AC306C
:1037DC007B681B680C33D7F8AC20BA657B65796DB8
:1037EC00BA6D41E800233B653B6D002BE3D17B6850
:1037FC00DB6B1846FEF771FB7B6802225A637B6811
:10380C009A8D7B68DB8D9BB2D31A9BB21946786874
:10381C0000F0BFF89CE000BF793A00087B689A8DF5
:10382C007B68DB8D9BB2D31AA7F8CE307B68DB8D1F
:10383C009BB2002B00F08E80B7F8CE30002B00F03E
:10384C0089807B681B680C33BB63BB6B53E8003F00
:10385C007B637B6B23F49073C7F8C8307B681B6861
:10386C000C33D7F8C8207A643B64396C7A6C41E825
:10387C000023FB63FB6B002BE3D17B681B681433C9
:10388C007B627B6A53E8003F3B623B6A23F0010397
:10389C00C7F8C4307B681B681433D7F8C4203A636C
:1038AC00FB62F96A3A6B41E80023BB62BB6A002BEE
:1038BC00E3D17B68202283F842207B6800221A63C4
:1038CC007B681B680C333B613B6953E8003FFB6032
:1038DC00FB6823F01003C7F8C0307B681B680C33FF
:1038EC00D7F8C020FA61BB61B969FA6941E80023D5
:1038FC007B617B69002BE3D17B6802225A63B7F8AA
:10390C00CE301946786800F044F823E0D7F8E4305C
:10391C0003F08003002B09D0D7F8E03003F08003CC
:10392C00002B03D0786800F0B5F814E0D7F8E43039
:10393C0003F04003002B0ED0D7F8E03003F0400327
:10394C00002B08D0786800F0F4F804E000BF02E027
:10395C0000BF00E000BFE837BD4680BD80B483B037
:10396C0000AF786000BF0C37BD4680BC704780B498
:10397C0083B000AF786000BF0C37BD4680BC704789
:10398C0080B483B000AF786000BF0C37BD4680BCFC
:10399C00704780B483B000AF78600B467B8000BF6B
:1039AC000C37BD4680BC704780B495B000AF7860D2
:1039BC007B681B680C337B637B6B53E8003F3B637A
:1039CC003B6B23F49073FB647B681B680C33FA6CC1
:1039DC003A64FB63F96B3A6C41E80023BB63BB6B45
:1039EC00002BE5D17B681B6814333B623B6A53E8C0
:1039FC00003FFB61FB6923F00103BB647B681B6820
:103A0C001433BA6CFA62BB62B96AFA6A41E80023F1
:103A1C007B627B6A002BE5D17B681B6B012B19D178
:103A2C007B681B680C33FB60FB6853E8003FBB6092
:103A3C00BB6823F010037B647B681B680C337A6CC7
:103A4C00BA617B617969BA6941E800233B613B69E2
:103A5C00002BE5D17B68202283F842207B68002272
:103A6C001A6300BF5437BD4680BC704780B584B024
:103A7C0000AF78607B685B6AFB60FB680022DA85CC
:103A8C00FB680022DA84F868FFF77AFF00BF103772
:103A9C00BD4680BD80B485B000AF78607B6893F87C
:103AAC004130DBB2212B3ED17B689B68B3F5805F44
:103ABC0014D17B681B69002B10D17B681B6AFB60DF
:103ACC00FB681B881A467B681B68C2F308025A60A5
:103ADC007B681B6A9A1C7B681A6208E07B681B6A0D
:103AEC00591C7A6811621A787B681B685A607B686B
:103AFC00DB8C9BB2013B9BB27A681946D184002BBC
:103B0C000FD17B681B68DA687B681B6822F0800227
:103B1C00DA607B681B68DA687B681B6842F04002DD
:103B2C00DA60002300E0022318461437BD4680BC3F
:103B3C00704780B582B000AF78607B681B68DA682C
:103B4C007B681B6822F04002DA607B68202283F8D5
:103B5C0041207868FFF702FF002318460837BD465E
:103B6C0080BD80B58CB000AF78607B6893F8423034
:103B7C00DBB2222B40F0AE807B689B68B3F5805F94
:103B8C0017D17B681B69002B13D10023FB627B6868
:103B9C009B6ABB627B681B685B689BB2C3F30803C0
:103BAC009AB2BB6A1A807B689B6A9A1C7B689A6281
:103BBC0026E07B689B6AFB620023BB627B689B6888
:103BCC00B3F5805F07D07B689B68002B0AD17B68BC
:103BDC001B69002B06D17B681B685B68DAB2FB6A39
:103BEC001A7008E07B681B685B68DBB203F07F032C
:103BFC00DAB2FB6A1A707B689B6A5A1C7B689A6201
:103C0C007B68DB8D9BB2013B9BB27A681946D185F0
:103C1C00002B5DD17B681B68DA687B681B6822F01F
:103C2C002002DA607B681B68DA687B681B6822F408
:103C3C008072DA607B681B685A697B681B6822F0AB
:103C4C0001025A617B68202283F842207B680022A3
:103C5C005A637B681B6B012B35D17B6800221A637E
:103C6C007B681B680C337B617B6953E8003F3B61CD
:103C7C003B6923F010037B627B681B680C337A6A08
:103C8C003A62FB61F9693A6A41E80023BB61BB699E
:103C9C00002BE5D17B681B681B6803F01003102B0D
:103CAC000AD10023FB607B681B681B68FB607B6888
:103CBC001B685B68FB60FB687B689B8D19467868AA
:103CCC00FFF767FE02E07868FFF751FE002302E081
:103CDC00002300E0022318463037BD4680BD0000AB
:103CEC0080B584B000AF78607B681B681B6923F4D7
:103CFC0040517B68DA687B681B680A431A617B68F1
:103D0C009A687B681B691A437B685B691343BB60C9
:103D1C007B681B68DB6823F4B05323F00C037A68D0
:103D2C001268B9680B43D3607B681B685B6923F42A
:103D3C0040717B689A697B681B680A435A617B688F
:103D4C001B682C4A934203D1FEF718FFF86002E07F
:103D5C00FEF700FFF860FA6813469B0013449A00C4
:103D6C001A447B685B689B00B2FBF3F3224AA2FB0C
:103D7C0003235B091901FA6813469B0013449A004C
:103D8C001A447B685B689B00B2FBF3F21A4BA3FBF3
:103D9C0002035B09642000FB03F3D31A1B013233CB
:103DAC00154AA2FB03235B0903F0F0031944FA68DC
:103DBC0013469B0013449A001A447B685B689B0073
:103DCC00B2FBF3F20C4BA3FB02035B09642000FB78
:103DDC0003F3D31A1B013233074AA2FB03235B09FB
:103DEC0003F00F027B681B680A449A6000BF10370F
:103DFC00BD4680BD003801401F85EB51014B186852
:103E0C00704700BF7000002070B500260C4D0D4CA3
:103E1C00641BA410A64209D100F0F6F800260A4D46
:103E2C000A4C641BA410A64205D170BD55F8043B86
:103E3C0098470136EEE755F8043B98470136F2E710
:103E4C005840000858400008584000085C400008E2
:103E5C00024B0146186800F05FB800BF70000020EC
:103E6C00024B0146186800F00BB800BF7000002030
:103E7C0003460244934200D1704703F8011BF9E753
:103E8C0038B50546002943D051F8043C0C1F002BD3
:103E9C00B8BFE41800F0AAF81E4A1368104633B9EC
:103EAC00636014602846BDE8384000F0A5B8A34212
:103EBC000AD921686218934201BF1A685B685218CC
:103ECC00226063600460EDE71A465B680BB1A342A5
:103EDC00FAD911685018A0420BD12068014450182F
:103EEC0083421160DED118685B6801441160536035
:103EFC00D8E702D90C232B60D4E7206821188B4219
:103F0C0001BF19685B680918216063605460C9E7D8
:103F1C0038BD00BF6C010020F8B5CD1C25F00305A1
:103F2C0008350C2D38BF0C25002D064601DBA942A7
:103F3C0003D90C2333600020F8BD00F057F8214959
:103F4C000A6814469CB9204F3B6823B92146304679
:103F5C0000F03CF838602946304600F037F8431C36
:103F6C0023D10C233046336000F046F8E3E7236896
:103F7C005B1B17D40B2B03D923601C44256004E076
:103F8C006368A2420CBF0B605360304600F034F8FB
:103F9C0004F10B00231D20F00700C21ACCD01B1A11
:103FAC00A350C9E722466468CCE7C41C24F0030480
:103FBC00A042E3D0211A304600F008F80130DDD1E0
:103FCC00CFE700BF6C0100207001002038B5002342
:103FDC00054D044608462B60FDF7A8FC431C02D196
:103FEC002B6803B1236038BD44020020014800F067
:103FFC0009B800BF4C020020014800F004B800BF13
:10400C004C02002070477047F8B500BFF8BC08BCE4
:10401C009E467047F8B500BFF8BC08BC9E4670477A
:10402C00000000000000000001020304060708095C
:10403C00000000000102030402030405060708093E
:0C404C000A0B0C0D0E0F101001020000FA
:04405800310100082A
:04405C000D0100084A
:10406000010000000000000000000000010000004E
:10407000000000000000000001000000000000003F
:10408000000000000100000000000000000000002F
:10409000F401000005000000020000000300000021
:1040A0000500000002000000030000000500000001
:1040B00002000000030000000100000001000000F9
:1040C0000100000000127A00100000000100000052
:1040D000740000200000000000000000000000004C
:1040E00000000000000000000000000000000000D0
:1040F00000000000000000000000000000000000C0
:1041000000000000000000000000000000000000AF
:10411000000000000000000000000000000000009F
:10412000000000000000000000000000000000008F
:04413000000000008B
:0400000508001BBD17
:00000001FF
